{
  "_format": "hh-sol-artifact-1",
  "contractName": "ExperessiveNFT",
  "sourceName": "contracts/BankContract.sol",
  "abi": [
    {
      "inputs": [],
      "stateMutability": "nonpayable",
      "type": "constructor"
    },
    {
      "anonymous": false,
      "inputs": [
        {
          "indexed": true,
          "internalType": "address",
          "name": "owner",
          "type": "address"
        },
        {
          "indexed": true,
          "internalType": "address",
          "name": "approved",
          "type": "address"
        },
        {
          "indexed": true,
          "internalType": "uint256",
          "name": "tokenId",
          "type": "uint256"
        }
      ],
      "name": "Approval",
      "type": "event"
    },
    {
      "anonymous": false,
      "inputs": [
        {
          "indexed": true,
          "internalType": "address",
          "name": "owner",
          "type": "address"
        },
        {
          "indexed": true,
          "internalType": "address",
          "name": "operator",
          "type": "address"
        },
        {
          "indexed": false,
          "internalType": "bool",
          "name": "approved",
          "type": "bool"
        }
      ],
      "name": "ApprovalForAll",
      "type": "event"
    },
    {
      "anonymous": false,
      "inputs": [
        {
          "indexed": true,
          "internalType": "address",
          "name": "previousOwner",
          "type": "address"
        },
        {
          "indexed": true,
          "internalType": "address",
          "name": "newOwner",
          "type": "address"
        }
      ],
      "name": "OwnershipTransferred",
      "type": "event"
    },
    {
      "anonymous": false,
      "inputs": [
        {
          "indexed": true,
          "internalType": "address",
          "name": "from",
          "type": "address"
        },
        {
          "indexed": true,
          "internalType": "address",
          "name": "to",
          "type": "address"
        },
        {
          "indexed": true,
          "internalType": "uint256",
          "name": "tokenId",
          "type": "uint256"
        }
      ],
      "name": "Transfer",
      "type": "event"
    },
    {
      "inputs": [],
      "name": "MAX_SUPPLY",
      "outputs": [
        {
          "internalType": "uint256",
          "name": "",
          "type": "uint256"
        }
      ],
      "stateMutability": "view",
      "type": "function"
    },
    {
      "inputs": [],
      "name": "MINT_PRICE",
      "outputs": [
        {
          "internalType": "uint256",
          "name": "",
          "type": "uint256"
        }
      ],
      "stateMutability": "view",
      "type": "function"
    },
    {
      "inputs": [
        {
          "internalType": "address",
          "name": "to",
          "type": "address"
        },
        {
          "internalType": "uint256",
          "name": "tokenId",
          "type": "uint256"
        }
      ],
      "name": "approve",
      "outputs": [],
      "stateMutability": "nonpayable",
      "type": "function"
    },
    {
      "inputs": [
        {
          "internalType": "address",
          "name": "owner",
          "type": "address"
        }
      ],
      "name": "balanceOf",
      "outputs": [
        {
          "internalType": "uint256",
          "name": "",
          "type": "uint256"
        }
      ],
      "stateMutability": "view",
      "type": "function"
    },
    {
      "inputs": [],
      "name": "baseExtension",
      "outputs": [
        {
          "internalType": "string",
          "name": "",
          "type": "string"
        }
      ],
      "stateMutability": "view",
      "type": "function"
    },
    {
      "inputs": [],
      "name": "baseURI",
      "outputs": [
        {
          "internalType": "string",
          "name": "",
          "type": "string"
        }
      ],
      "stateMutability": "view",
      "type": "function"
    },
    {
      "inputs": [
        {
          "internalType": "uint256",
          "name": "tokenId",
          "type": "uint256"
        }
      ],
      "name": "getApproved",
      "outputs": [
        {
          "internalType": "address",
          "name": "",
          "type": "address"
        }
      ],
      "stateMutability": "view",
      "type": "function"
    },
    {
      "inputs": [
        {
          "internalType": "address",
          "name": "owner",
          "type": "address"
        },
        {
          "internalType": "address",
          "name": "operator",
          "type": "address"
        }
      ],
      "name": "isApprovedForAll",
      "outputs": [
        {
          "internalType": "bool",
          "name": "",
          "type": "bool"
        }
      ],
      "stateMutability": "view",
      "type": "function"
    },
    {
      "inputs": [],
      "name": "maxMintAmount",
      "outputs": [
        {
          "internalType": "uint256",
          "name": "",
          "type": "uint256"
        }
      ],
      "stateMutability": "view",
      "type": "function"
    },
    {
      "inputs": [],
      "name": "name",
      "outputs": [
        {
          "internalType": "string",
          "name": "",
          "type": "string"
        }
      ],
      "stateMutability": "view",
      "type": "function"
    },
    {
      "inputs": [],
      "name": "nftPerAddressLimit",
      "outputs": [
        {
          "internalType": "uint256",
          "name": "",
          "type": "uint256"
        }
      ],
      "stateMutability": "view",
      "type": "function"
    },
    {
      "inputs": [],
      "name": "notRevealedUri",
      "outputs": [
        {
          "internalType": "string",
          "name": "",
          "type": "string"
        }
      ],
      "stateMutability": "view",
      "type": "function"
    },
    {
      "inputs": [],
      "name": "owner",
      "outputs": [
        {
          "internalType": "address",
          "name": "",
          "type": "address"
        }
      ],
      "stateMutability": "view",
      "type": "function"
    },
    {
      "inputs": [
        {
          "internalType": "uint256",
          "name": "tokenId",
          "type": "uint256"
        }
      ],
      "name": "ownerOf",
      "outputs": [
        {
          "internalType": "address",
          "name": "",
          "type": "address"
        }
      ],
      "stateMutability": "view",
      "type": "function"
    },
    {
      "inputs": [],
      "name": "paused",
      "outputs": [
        {
          "internalType": "bool",
          "name": "",
          "type": "bool"
        }
      ],
      "stateMutability": "view",
      "type": "function"
    },
    {
      "inputs": [],
      "name": "renounceOwnership",
      "outputs": [],
      "stateMutability": "nonpayable",
      "type": "function"
    },
    {
      "inputs": [],
      "name": "reveal",
      "outputs": [],
      "stateMutability": "nonpayable",
      "type": "function"
    },
    {
      "inputs": [],
      "name": "revealed",
      "outputs": [
        {
          "internalType": "bool",
          "name": "",
          "type": "bool"
        }
      ],
      "stateMutability": "view",
      "type": "function"
    },
    {
      "inputs": [
        {
          "internalType": "address",
          "name": "to",
          "type": "address"
        },
        {
          "internalType": "string",
          "name": "uri",
          "type": "string"
        }
      ],
      "name": "safeMint",
      "outputs": [],
      "stateMutability": "payable",
      "type": "function"
    },
    {
      "inputs": [
        {
          "internalType": "address",
          "name": "from",
          "type": "address"
        },
        {
          "internalType": "address",
          "name": "to",
          "type": "address"
        },
        {
          "internalType": "uint256",
          "name": "tokenId",
          "type": "uint256"
        }
      ],
      "name": "safeTransferFrom",
      "outputs": [],
      "stateMutability": "nonpayable",
      "type": "function"
    },
    {
      "inputs": [
        {
          "internalType": "address",
          "name": "from",
          "type": "address"
        },
        {
          "internalType": "address",
          "name": "to",
          "type": "address"
        },
        {
          "internalType": "uint256",
          "name": "tokenId",
          "type": "uint256"
        },
        {
          "internalType": "bytes",
          "name": "data",
          "type": "bytes"
        }
      ],
      "name": "safeTransferFrom",
      "outputs": [],
      "stateMutability": "nonpayable",
      "type": "function"
    },
    {
      "inputs": [
        {
          "internalType": "address",
          "name": "operator",
          "type": "address"
        },
        {
          "internalType": "bool",
          "name": "approved",
          "type": "bool"
        }
      ],
      "name": "setApprovalForAll",
      "outputs": [],
      "stateMutability": "nonpayable",
      "type": "function"
    },
    {
      "inputs": [
        {
          "internalType": "uint256",
          "name": "_newCost",
          "type": "uint256"
        }
      ],
      "name": "setCost",
      "outputs": [],
      "stateMutability": "nonpayable",
      "type": "function"
    },
    {
      "inputs": [
        {
          "internalType": "uint256",
          "name": "_limit",
          "type": "uint256"
        }
      ],
      "name": "setNftPerAddressLimit",
      "outputs": [],
      "stateMutability": "nonpayable",
      "type": "function"
    },
    {
      "inputs": [
        {
          "internalType": "uint256",
          "name": "_newmaxMintAmount",
          "type": "uint256"
        }
      ],
      "name": "setmaxMintAmount",
      "outputs": [],
      "stateMutability": "nonpayable",
      "type": "function"
    },
    {
      "inputs": [
        {
          "internalType": "bytes4",
          "name": "interfaceId",
          "type": "bytes4"
        }
      ],
      "name": "supportsInterface",
      "outputs": [
        {
          "internalType": "bool",
          "name": "",
          "type": "bool"
        }
      ],
      "stateMutability": "view",
      "type": "function"
    },
    {
      "inputs": [],
      "name": "symbol",
      "outputs": [
        {
          "internalType": "string",
          "name": "",
          "type": "string"
        }
      ],
      "stateMutability": "view",
      "type": "function"
    },
    {
      "inputs": [
        {
          "internalType": "uint256",
          "name": "index",
          "type": "uint256"
        }
      ],
      "name": "tokenByIndex",
      "outputs": [
        {
          "internalType": "uint256",
          "name": "",
          "type": "uint256"
        }
      ],
      "stateMutability": "view",
      "type": "function"
    },
    {
      "inputs": [
        {
          "internalType": "address",
          "name": "owner",
          "type": "address"
        },
        {
          "internalType": "uint256",
          "name": "index",
          "type": "uint256"
        }
      ],
      "name": "tokenOfOwnerByIndex",
      "outputs": [
        {
          "internalType": "uint256",
          "name": "",
          "type": "uint256"
        }
      ],
      "stateMutability": "view",
      "type": "function"
    },
    {
      "inputs": [
        {
          "internalType": "uint256",
          "name": "tokenId",
          "type": "uint256"
        }
      ],
      "name": "tokenURI",
      "outputs": [
        {
          "internalType": "string",
          "name": "",
          "type": "string"
        }
      ],
      "stateMutability": "view",
      "type": "function"
    },
    {
      "inputs": [],
      "name": "totalSupply",
      "outputs": [
        {
          "internalType": "uint256",
          "name": "",
          "type": "uint256"
        }
      ],
      "stateMutability": "view",
      "type": "function"
    },
    {
      "inputs": [
        {
          "internalType": "address",
          "name": "from",
          "type": "address"
        },
        {
          "internalType": "address",
          "name": "to",
          "type": "address"
        },
        {
          "internalType": "uint256",
          "name": "tokenId",
          "type": "uint256"
        }
      ],
      "name": "transferFrom",
      "outputs": [],
      "stateMutability": "nonpayable",
      "type": "function"
    },
    {
      "inputs": [
        {
          "internalType": "address",
          "name": "newOwner",
          "type": "address"
        }
      ],
      "name": "transferOwnership",
      "outputs": [],
      "stateMutability": "nonpayable",
      "type": "function"
    },
    {
      "inputs": [
        {
          "internalType": "address",
          "name": "_owner",
          "type": "address"
        }
      ],
      "name": "walletOfOwner",
      "outputs": [
        {
          "internalType": "uint256[]",
          "name": "",
          "type": "uint256[]"
        }
      ],
      "stateMutability": "view",
      "type": "function"
    },
    {
      "inputs": [],
      "name": "withdrawPayments",
      "outputs": [],
      "stateMutability": "nonpayable",
      "type": "function"
    }
  ],
  "bytecode": "0x6080604052620f4240600d5566038d7ea4c68000600e556014600f5560036010556040518060400160405280600581526020017f2e6a736f6e000000000000000000000000000000000000000000000000000000815250601290805190602001906200006d92919062000273565b506001601460006101000a81548160ff0219169083151502179055506000601460016101000a81548160ff021916908315150217905550348015620000b157600080fd5b506040518060400160405280600e81526020017f45787065726573736976654e46540000000000000000000000000000000000008152506040518060400160405280600381526020017f454e47000000000000000000000000000000000000000000000000000000000081525081600090805190602001906200013692919062000273565b5080600190805190602001906200014f92919062000273565b50505062000172620001666200018f60201b60201c565b6200019760201b60201c565b62000189600c6200025d60201b620014b11760201c565b62000388565b600033905090565b6000600b60009054906101000a900473ffffffffffffffffffffffffffffffffffffffff16905081600b60006101000a81548173ffffffffffffffffffffffffffffffffffffffff021916908373ffffffffffffffffffffffffffffffffffffffff1602179055508173ffffffffffffffffffffffffffffffffffffffff168173ffffffffffffffffffffffffffffffffffffffff167f8be0079c531659141344cd1fd0a4f28419497f9722a3daafe3b4186f6b6457e060405160405180910390a35050565b6001816000016000828254019250508190555050565b828054620002819062000352565b90600052602060002090601f016020900481019282620002a55760008555620002f1565b82601f10620002c057805160ff1916838001178555620002f1565b82800160010185558215620002f1579182015b82811115620002f0578251825591602001919060010190620002d3565b5b50905062000300919062000304565b5090565b5b808211156200031f57600081600090555060010162000305565b5090565b7f4e487b7100000000000000000000000000000000000000000000000000000000600052602260045260246000fd5b600060028204905060018216806200036b57607f821691505b6020821081141562000382576200038162000323565b5b50919050565b613fc480620003986000396000f3fe6080604052600436106102045760003560e01c80636352211e11610118578063b88d4fde116100a0578063c87b56dd1161006f578063c87b56dd14610747578063d0eb26b014610784578063d204c45e146107ad578063e985e9c5146107c9578063f2fde38b1461080657610204565b8063b88d4fde1461069d578063ba7d2c76146106c6578063c002d23d146106f1578063c66828621461071c57610204565b80637f00c7a6116100e75780637f00c7a6146105de5780638da5cb5b1461060757806395d89b4114610632578063a22cb4651461065d578063a475b5dd1461068657610204565b80636352211e146105225780636c0360eb1461055f57806370a082311461058a578063715018a6146105c757610204565b80632f745c591161019b57806344a0d68a1161016a57806344a0d68a1461044f5780634f6ccce71461047857806351830227146104b55780635c975abb146104e05780636103d70b1461050b57610204565b80632f745c591461038157806332cb6b0c146103be57806342842e0e146103e9578063438b63001461041257610204565b8063095ea7b3116101d7578063095ea7b3146102d957806318160ddd14610302578063239c70ae1461032d57806323b872dd1461035857610204565b806301ffc9a71461020957806306fdde0314610246578063081812fc14610271578063081c8c44146102ae575b600080fd5b34801561021557600080fd5b50610230600480360381019061022b9190612ad3565b61082f565b60405161023d9190612b1b565b60405180910390f35b34801561025257600080fd5b5061025b610841565b6040516102689190612bcf565b60405180910390f35b34801561027d57600080fd5b5061029860048036038101906102939190612c27565b6108d3565b6040516102a59190612c95565b60405180910390f35b3480156102ba57600080fd5b506102c3610919565b6040516102d09190612bcf565b60405180910390f35b3480156102e557600080fd5b5061030060048036038101906102fb9190612cdc565b6109a7565b005b34801561030e57600080fd5b50610317610abf565b6040516103249190612d2b565b60405180910390f35b34801561033957600080fd5b50610342610acc565b60405161034f9190612d2b565b60405180910390f35b34801561036457600080fd5b5061037f600480360381019061037a9190612d46565b610ad2565b005b34801561038d57600080fd5b506103a860048036038101906103a39190612cdc565b610b32565b6040516103b59190612d2b565b60405180910390f35b3480156103ca57600080fd5b506103d3610bd7565b6040516103e09190612d2b565b60405180910390f35b3480156103f557600080fd5b50610410600480360381019061040b9190612d46565b610bdd565b005b34801561041e57600080fd5b5061043960048036038101906104349190612d99565b610bfd565b6040516104469190612e84565b60405180910390f35b34801561045b57600080fd5b5061047660048036038101906104719190612c27565b610cab565b005b34801561048457600080fd5b5061049f600480360381019061049a9190612c27565b610cbd565b6040516104ac9190612d2b565b60405180910390f35b3480156104c157600080fd5b506104ca610d2e565b6040516104d79190612b1b565b60405180910390f35b3480156104ec57600080fd5b506104f5610d41565b6040516105029190612b1b565b60405180910390f35b34801561051757600080fd5b50610520610d54565b005b34801561052e57600080fd5b5061054960048036038101906105449190612c27565b610dac565b6040516105569190612c95565b60405180910390f35b34801561056b57600080fd5b50610574610e5e565b6040516105819190612bcf565b60405180910390f35b34801561059657600080fd5b506105b160048036038101906105ac9190612d99565b610eec565b6040516105be9190612d2b565b60405180910390f35b3480156105d357600080fd5b506105dc610fa4565b005b3480156105ea57600080fd5b5061060560048036038101906106009190612c27565b610fb8565b005b34801561061357600080fd5b5061061c610fca565b6040516106299190612c95565b60405180910390f35b34801561063e57600080fd5b50610647610ff4565b6040516106549190612bcf565b60405180910390f35b34801561066957600080fd5b50610684600480360381019061067f9190612ed2565b611086565b005b34801561069257600080fd5b5061069b61109c565b005b3480156106a957600080fd5b506106c460048036038101906106bf9190613047565b6110c1565b005b3480156106d257600080fd5b506106db611123565b6040516106e89190612d2b565b60405180910390f35b3480156106fd57600080fd5b50610706611129565b6040516107139190612d2b565b60405180910390f35b34801561072857600080fd5b5061073161112f565b60405161073e9190612bcf565b60405180910390f35b34801561075357600080fd5b5061076e60048036038101906107699190612c27565b6111bd565b60405161077b9190612bcf565b60405180910390f35b34801561079057600080fd5b506107ab60048036038101906107a69190612c27565b6112c6565b005b6107c760048036038101906107c2919061316b565b6112d8565b005b3480156107d557600080fd5b506107f060048036038101906107eb91906131c7565b611399565b6040516107fd9190612b1b565b60405180910390f35b34801561081257600080fd5b5061082d60048036038101906108289190612d99565b61142d565b005b600061083a826114c7565b9050919050565b60606000805461085090613236565b80601f016020809104026020016040519081016040528092919081815260200182805461087c90613236565b80156108c95780601f1061089e576101008083540402835291602001916108c9565b820191906000526020600020905b8154815290600101906020018083116108ac57829003601f168201915b5050505050905090565b60006108de82611541565b6004600083815260200190815260200160002060009054906101000a900473ffffffffffffffffffffffffffffffffffffffff169050919050565b6013805461092690613236565b80601f016020809104026020016040519081016040528092919081815260200182805461095290613236565b801561099f5780601f106109745761010080835404028352916020019161099f565b820191906000526020600020905b81548152906001019060200180831161098257829003601f168201915b505050505081565b60006109b282610dac565b90508073ffffffffffffffffffffffffffffffffffffffff168373ffffffffffffffffffffffffffffffffffffffff161415610a23576040517f08c379a0000000000000000000000000000000000000000000000000000000008152600401610a1a906132da565b60405180910390fd5b8073ffffffffffffffffffffffffffffffffffffffff16610a4261158c565b73ffffffffffffffffffffffffffffffffffffffff161480610a715750610a7081610a6b61158c565b611399565b5b610ab0576040517f08c379a0000000000000000000000000000000000000000000000000000000008152600401610aa79061336c565b60405180910390fd5b610aba8383611594565b505050565b6000600880549050905090565b600f5481565b610ae3610add61158c565b8261164d565b610b22576040517f08c379a0000000000000000000000000000000000000000000000000000000008152600401610b19906133fe565b60405180910390fd5b610b2d8383836116e2565b505050565b6000610b3d83610eec565b8210610b7e576040517f08c379a0000000000000000000000000000000000000000000000000000000008152600401610b7590613490565b60405180910390fd5b600660008473ffffffffffffffffffffffffffffffffffffffff1673ffffffffffffffffffffffffffffffffffffffff168152602001908152602001600020600083815260200190815260200160002054905092915050565b600d5481565b610bf8838383604051806020016040528060008152506110c1565b505050565b60606000610c0a83610eec565b905060008167ffffffffffffffff811115610c2857610c27612f1c565b5b604051908082528060200260200182016040528015610c565781602001602082028036833780820191505090505b50905060005b82811015610ca057610c6e8582610b32565b828281518110610c8157610c806134b0565b5b6020026020010181815250508080610c989061350e565b915050610c5c565b508092505050919050565b610cb3611949565b80600e8190555050565b6000610cc7610abf565b8210610d08576040517f08c379a0000000000000000000000000000000000000000000000000000000008152600401610cff906135c9565b60405180910390fd5b60088281548110610d1c57610d1b6134b0565b5b90600052602060002001549050919050565b601460009054906101000a900460ff1681565b601460019054906101000a900460ff1681565b610d5c611949565b610d64610fca565b73ffffffffffffffffffffffffffffffffffffffff166108fc479081150290604051600060405180830381858888f19350505050158015610da9573d6000803e3d6000fd5b50565b6000806002600084815260200190815260200160002060009054906101000a900473ffffffffffffffffffffffffffffffffffffffff169050600073ffffffffffffffffffffffffffffffffffffffff168173ffffffffffffffffffffffffffffffffffffffff161415610e55576040517f08c379a0000000000000000000000000000000000000000000000000000000008152600401610e4c90613635565b60405180910390fd5b80915050919050565b60118054610e6b90613236565b80601f0160208091040260200160405190810160405280929190818152602001828054610e9790613236565b8015610ee45780601f10610eb957610100808354040283529160200191610ee4565b820191906000526020600020905b815481529060010190602001808311610ec757829003601f168201915b505050505081565b60008073ffffffffffffffffffffffffffffffffffffffff168273ffffffffffffffffffffffffffffffffffffffff161415610f5d576040517f08c379a0000000000000000000000000000000000000000000000000000000008152600401610f54906136c7565b60405180910390fd5b600360008373ffffffffffffffffffffffffffffffffffffffff1673ffffffffffffffffffffffffffffffffffffffff168152602001908152602001600020549050919050565b610fac611949565b610fb660006119c7565b565b610fc0611949565b80600f8190555050565b6000600b60009054906101000a900473ffffffffffffffffffffffffffffffffffffffff16905090565b60606001805461100390613236565b80601f016020809104026020016040519081016040528092919081815260200182805461102f90613236565b801561107c5780601f106110515761010080835404028352916020019161107c565b820191906000526020600020905b81548152906001019060200180831161105f57829003601f168201915b5050505050905090565b61109861109161158c565b8383611a8d565b5050565b6110a4611949565b6001601460006101000a81548160ff021916908315150217905550565b6110d26110cc61158c565b8361164d565b611111576040517f08c379a0000000000000000000000000000000000000000000000000000000008152600401611108906133fe565b60405180910390fd5b61111d84848484611bfa565b50505050565b60105481565b600e5481565b6012805461113c90613236565b80601f016020809104026020016040519081016040528092919081815260200182805461116890613236565b80156111b55780601f1061118a576101008083540402835291602001916111b5565b820191906000526020600020905b81548152906001019060200180831161119857829003601f168201915b505050505081565b60606111c882611c56565b611207576040517f08c379a00000000000000000000000000000000000000000000000000000000081526004016111fe90613759565b60405180910390fd5b60001515601460009054906101000a900460ff16151514156112b5576013805461123090613236565b80601f016020809104026020016040519081016040528092919081815260200182805461125c90613236565b80156112a95780601f1061127e576101008083540402835291602001916112a9565b820191906000526020600020905b81548152906001019060200180831161128c57829003601f168201915b505050505090506112c1565b6112be82611cc2565b90505b919050565b6112ce611949565b8060108190555050565b600e5434101561131d576040517f08c379a0000000000000000000000000000000000000000000000000000000008152600401611314906137eb565b60405180910390fd5b600d54611328610abf565b10611368576040517f08c379a000000000000000000000000000000000000000000000000000000000815260040161135f90613857565b60405180910390fd5b6000611374600c611dd5565b9050611380600c6114b1565b61138a8382611de3565b6113948183611e01565b505050565b6000600560008473ffffffffffffffffffffffffffffffffffffffff1673ffffffffffffffffffffffffffffffffffffffff16815260200190815260200160002060008373ffffffffffffffffffffffffffffffffffffffff1673ffffffffffffffffffffffffffffffffffffffff16815260200190815260200160002060009054906101000a900460ff16905092915050565b611435611949565b600073ffffffffffffffffffffffffffffffffffffffff168173ffffffffffffffffffffffffffffffffffffffff1614156114a5576040517f08c379a000000000000000000000000000000000000000000000000000000000815260040161149c906138e9565b60405180910390fd5b6114ae816119c7565b50565b6001816000016000828254019250508190555050565b60007f780e9d63000000000000000000000000000000000000000000000000000000007bffffffffffffffffffffffffffffffffffffffffffffffffffffffff1916827bffffffffffffffffffffffffffffffffffffffffffffffffffffffff1916148061153a575061153982611e75565b5b9050919050565b61154a81611c56565b611589576040517f08c379a000000000000000000000000000000000000000000000000000000000815260040161158090613635565b60405180910390fd5b50565b600033905090565b816004600083815260200190815260200160002060006101000a81548173ffffffffffffffffffffffffffffffffffffffff021916908373ffffffffffffffffffffffffffffffffffffffff160217905550808273ffffffffffffffffffffffffffffffffffffffff1661160783610dac565b73ffffffffffffffffffffffffffffffffffffffff167f8c5be1e5ebec7d5bd14f71427d1e84f3dd0314c0f7b2291e5b200ac8c7c3b92560405160405180910390a45050565b60008061165983610dac565b90508073ffffffffffffffffffffffffffffffffffffffff168473ffffffffffffffffffffffffffffffffffffffff16148061169b575061169a8185611399565b5b806116d957508373ffffffffffffffffffffffffffffffffffffffff166116c1846108d3565b73ffffffffffffffffffffffffffffffffffffffff16145b91505092915050565b8273ffffffffffffffffffffffffffffffffffffffff1661170282610dac565b73ffffffffffffffffffffffffffffffffffffffff1614611758576040517f08c379a000000000000000000000000000000000000000000000000000000000815260040161174f9061397b565b60405180910390fd5b600073ffffffffffffffffffffffffffffffffffffffff168273ffffffffffffffffffffffffffffffffffffffff1614156117c8576040517f08c379a00000000000000000000000000000000000000000000000000000000081526004016117bf90613a0d565b60405180910390fd5b6117d3838383611f57565b6117de600082611594565b6001600360008573ffffffffffffffffffffffffffffffffffffffff1673ffffffffffffffffffffffffffffffffffffffff168152602001908152602001600020600082825461182e9190613a2d565b925050819055506001600360008473ffffffffffffffffffffffffffffffffffffffff1673ffffffffffffffffffffffffffffffffffffffff16815260200190815260200160002060008282546118859190613a61565b92505081905550816002600083815260200190815260200160002060006101000a81548173ffffffffffffffffffffffffffffffffffffffff021916908373ffffffffffffffffffffffffffffffffffffffff160217905550808273ffffffffffffffffffffffffffffffffffffffff168473ffffffffffffffffffffffffffffffffffffffff167fddf252ad1be2c89b69c2b068fc378daa952ba7f163c4a11628f55a4df523b3ef60405160405180910390a4611944838383611f67565b505050565b61195161158c565b73ffffffffffffffffffffffffffffffffffffffff1661196f610fca565b73ffffffffffffffffffffffffffffffffffffffff16146119c5576040517f08c379a00000000000000000000000000000000000000000000000000000000081526004016119bc90613b03565b60405180910390fd5b565b6000600b60009054906101000a900473ffffffffffffffffffffffffffffffffffffffff16905081600b60006101000a81548173ffffffffffffffffffffffffffffffffffffffff021916908373ffffffffffffffffffffffffffffffffffffffff1602179055508173ffffffffffffffffffffffffffffffffffffffff168173ffffffffffffffffffffffffffffffffffffffff167f8be0079c531659141344cd1fd0a4f28419497f9722a3daafe3b4186f6b6457e060405160405180910390a35050565b8173ffffffffffffffffffffffffffffffffffffffff168373ffffffffffffffffffffffffffffffffffffffff161415611afc576040517f08c379a0000000000000000000000000000000000000000000000000000000008152600401611af390613b6f565b60405180910390fd5b80600560008573ffffffffffffffffffffffffffffffffffffffff1673ffffffffffffffffffffffffffffffffffffffff16815260200190815260200160002060008473ffffffffffffffffffffffffffffffffffffffff1673ffffffffffffffffffffffffffffffffffffffff16815260200190815260200160002060006101000a81548160ff0219169083151502179055508173ffffffffffffffffffffffffffffffffffffffff168373ffffffffffffffffffffffffffffffffffffffff167f17307eab39ab6107e8899845ad3d59bd9653f200f220920489ca2b5937696c3183604051611bed9190612b1b565b60405180910390a3505050565b611c058484846116e2565b611c1184848484611f6c565b611c50576040517f08c379a0000000000000000000000000000000000000000000000000000000008152600401611c4790613c01565b60405180910390fd5b50505050565b60008073ffffffffffffffffffffffffffffffffffffffff166002600084815260200190815260200160002060009054906101000a900473ffffffffffffffffffffffffffffffffffffffff1673ffffffffffffffffffffffffffffffffffffffff1614159050919050565b6060611ccd82611541565b6000600a60008481526020019081526020016000208054611ced90613236565b80601f0160208091040260200160405190810160405280929190818152602001828054611d1990613236565b8015611d665780601f10611d3b57610100808354040283529160200191611d66565b820191906000526020600020905b815481529060010190602001808311611d4957829003601f168201915b505050505090506000611d77612103565b9050600081511415611d8d578192505050611dd0565b600082511115611dc2578082604051602001611daa929190613c5d565b60405160208183030381529060405292505050611dd0565b611dcb8461211a565b925050505b919050565b600081600001549050919050565b611dfd828260405180602001604052806000815250612182565b5050565b611e0a82611c56565b611e49576040517f08c379a0000000000000000000000000000000000000000000000000000000008152600401611e4090613cf3565b60405180910390fd5b80600a60008481526020019081526020016000209080519060200190611e709291906129c4565b505050565b60007f80ac58cd000000000000000000000000000000000000000000000000000000007bffffffffffffffffffffffffffffffffffffffffffffffffffffffff1916827bffffffffffffffffffffffffffffffffffffffffffffffffffffffff19161480611f4057507f5b5e139f000000000000000000000000000000000000000000000000000000007bffffffffffffffffffffffffffffffffffffffffffffffffffffffff1916827bffffffffffffffffffffffffffffffffffffffffffffffffffffffff1916145b80611f505750611f4f826121dd565b5b9050919050565b611f62838383612247565b505050565b505050565b6000611f8d8473ffffffffffffffffffffffffffffffffffffffff1661235b565b156120f6578373ffffffffffffffffffffffffffffffffffffffff1663150b7a02611fb661158c565b8786866040518563ffffffff1660e01b8152600401611fd89493929190613d68565b602060405180830381600087803b158015611ff257600080fd5b505af192505050801561202357506040513d601f19601f820116820180604052508101906120209190613dc9565b60015b6120a6573d8060008114612053576040519150601f19603f3d011682016040523d82523d6000602084013e612058565b606091505b5060008151141561209e576040517f08c379a000000000000000000000000000000000000000000000000000000000815260040161209590613c01565b60405180910390fd5b805181602001fd5b63150b7a0260e01b7bffffffffffffffffffffffffffffffffffffffffffffffffffffffff1916817bffffffffffffffffffffffffffffffffffffffffffffffffffffffff1916149150506120fb565b600190505b949350505050565b606060405180602001604052806000815250905090565b606061212582611541565b600061212f612103565b9050600081511161214f576040518060200160405280600081525061217a565b806121598461237e565b60405160200161216a929190613c5d565b6040516020818303038152906040525b915050919050565b61218c83836124df565b6121996000848484611f6c565b6121d8576040517f08c379a00000000000000000000000000000000000000000000000000000000081526004016121cf90613c01565b60405180910390fd5b505050565b60007f01ffc9a7000000000000000000000000000000000000000000000000000000007bffffffffffffffffffffffffffffffffffffffffffffffffffffffff1916827bffffffffffffffffffffffffffffffffffffffffffffffffffffffff1916149050919050565b6122528383836126b9565b600073ffffffffffffffffffffffffffffffffffffffff168373ffffffffffffffffffffffffffffffffffffffff16141561229557612290816126be565b6122d4565b8173ffffffffffffffffffffffffffffffffffffffff168373ffffffffffffffffffffffffffffffffffffffff16146122d3576122d28382612707565b5b5b600073ffffffffffffffffffffffffffffffffffffffff168273ffffffffffffffffffffffffffffffffffffffff1614156123175761231281612874565b612356565b8273ffffffffffffffffffffffffffffffffffffffff168273ffffffffffffffffffffffffffffffffffffffff1614612355576123548282612945565b5b5b505050565b6000808273ffffffffffffffffffffffffffffffffffffffff163b119050919050565b606060008214156123c6576040518060400160405280600181526020017f300000000000000000000000000000000000000000000000000000000000000081525090506124da565b600082905060005b600082146123f85780806123e19061350e565b915050600a826123f19190613e25565b91506123ce565b60008167ffffffffffffffff81111561241457612413612f1c565b5b6040519080825280601f01601f1916602001820160405280156124465781602001600182028036833780820191505090505b5090505b600085146124d35760018261245f9190613a2d565b9150600a8561246e9190613e56565b603061247a9190613a61565b60f81b8183815181106124905761248f6134b0565b5b60200101907effffffffffffffffffffffffffffffffffffffffffffffffffffffffffffff1916908160001a905350600a856124cc9190613e25565b945061244a565b8093505050505b919050565b600073ffffffffffffffffffffffffffffffffffffffff168273ffffffffffffffffffffffffffffffffffffffff16141561254f576040517f08c379a000000000000000000000000000000000000000000000000000000000815260040161254690613ed3565b60405180910390fd5b61255881611c56565b15612598576040517f08c379a000000000000000000000000000000000000000000000000000000000815260040161258f90613f3f565b60405180910390fd5b6125a460008383611f57565b6001600360008473ffffffffffffffffffffffffffffffffffffffff1673ffffffffffffffffffffffffffffffffffffffff16815260200190815260200160002060008282546125f49190613a61565b92505081905550816002600083815260200190815260200160002060006101000a81548173ffffffffffffffffffffffffffffffffffffffff021916908373ffffffffffffffffffffffffffffffffffffffff160217905550808273ffffffffffffffffffffffffffffffffffffffff16600073ffffffffffffffffffffffffffffffffffffffff167fddf252ad1be2c89b69c2b068fc378daa952ba7f163c4a11628f55a4df523b3ef60405160405180910390a46126b560008383611f67565b5050565b505050565b6008805490506009600083815260200190815260200160002081905550600881908060018154018082558091505060019003906000526020600020016000909190919091505550565b6000600161271484610eec565b61271e9190613a2d565b9050600060076000848152602001908152602001600020549050818114612803576000600660008673ffffffffffffffffffffffffffffffffffffffff1673ffffffffffffffffffffffffffffffffffffffff168152602001908152602001600020600084815260200190815260200160002054905080600660008773ffffffffffffffffffffffffffffffffffffffff1673ffffffffffffffffffffffffffffffffffffffff168152602001908152602001600020600084815260200190815260200160002081905550816007600083815260200190815260200160002081905550505b6007600084815260200190815260200160002060009055600660008573ffffffffffffffffffffffffffffffffffffffff1673ffffffffffffffffffffffffffffffffffffffff16815260200190815260200160002060008381526020019081526020016000206000905550505050565b600060016008805490506128889190613a2d565b90506000600960008481526020019081526020016000205490506000600883815481106128b8576128b76134b0565b5b9060005260206000200154905080600883815481106128da576128d96134b0565b5b90600052602060002001819055508160096000838152602001908152602001600020819055506009600085815260200190815260200160002060009055600880548061292957612928613f5f565b5b6001900381819060005260206000200160009055905550505050565b600061295083610eec565b905081600660008573ffffffffffffffffffffffffffffffffffffffff1673ffffffffffffffffffffffffffffffffffffffff168152602001908152602001600020600083815260200190815260200160002081905550806007600084815260200190815260200160002081905550505050565b8280546129d090613236565b90600052602060002090601f0160209004810192826129f25760008555612a39565b82601f10612a0b57805160ff1916838001178555612a39565b82800160010185558215612a39579182015b82811115612a38578251825591602001919060010190612a1d565b5b509050612a469190612a4a565b5090565b5b80821115612a63576000816000905550600101612a4b565b5090565b6000604051905090565b600080fd5b600080fd5b60007fffffffff0000000000000000000000000000000000000000000000000000000082169050919050565b612ab081612a7b565b8114612abb57600080fd5b50565b600081359050612acd81612aa7565b92915050565b600060208284031215612ae957612ae8612a71565b5b6000612af784828501612abe565b91505092915050565b60008115159050919050565b612b1581612b00565b82525050565b6000602082019050612b306000830184612b0c565b92915050565b600081519050919050565b600082825260208201905092915050565b60005b83811015612b70578082015181840152602081019050612b55565b83811115612b7f576000848401525b50505050565b6000601f19601f8301169050919050565b6000612ba182612b36565b612bab8185612b41565b9350612bbb818560208601612b52565b612bc481612b85565b840191505092915050565b60006020820190508181036000830152612be98184612b96565b905092915050565b6000819050919050565b612c0481612bf1565b8114612c0f57600080fd5b50565b600081359050612c2181612bfb565b92915050565b600060208284031215612c3d57612c3c612a71565b5b6000612c4b84828501612c12565b91505092915050565b600073ffffffffffffffffffffffffffffffffffffffff82169050919050565b6000612c7f82612c54565b9050919050565b612c8f81612c74565b82525050565b6000602082019050612caa6000830184612c86565b92915050565b612cb981612c74565b8114612cc457600080fd5b50565b600081359050612cd681612cb0565b92915050565b60008060408385031215612cf357612cf2612a71565b5b6000612d0185828601612cc7565b9250506020612d1285828601612c12565b9150509250929050565b612d2581612bf1565b82525050565b6000602082019050612d406000830184612d1c565b92915050565b600080600060608486031215612d5f57612d5e612a71565b5b6000612d6d86828701612cc7565b9350506020612d7e86828701612cc7565b9250506040612d8f86828701612c12565b9150509250925092565b600060208284031215612daf57612dae612a71565b5b6000612dbd84828501612cc7565b91505092915050565b600081519050919050565b600082825260208201905092915050565b6000819050602082019050919050565b612dfb81612bf1565b82525050565b6000612e0d8383612df2565b60208301905092915050565b6000602082019050919050565b6000612e3182612dc6565b612e3b8185612dd1565b9350612e4683612de2565b8060005b83811015612e77578151612e5e8882612e01565b9750612e6983612e19565b925050600181019050612e4a565b5085935050505092915050565b60006020820190508181036000830152612e9e8184612e26565b905092915050565b612eaf81612b00565b8114612eba57600080fd5b50565b600081359050612ecc81612ea6565b92915050565b60008060408385031215612ee957612ee8612a71565b5b6000612ef785828601612cc7565b9250506020612f0885828601612ebd565b9150509250929050565b600080fd5b600080fd5b7f4e487b7100000000000000000000000000000000000000000000000000000000600052604160045260246000fd5b612f5482612b85565b810181811067ffffffffffffffff82111715612f7357612f72612f1c565b5b80604052505050565b6000612f86612a67565b9050612f928282612f4b565b919050565b600067ffffffffffffffff821115612fb257612fb1612f1c565b5b612fbb82612b85565b9050602081019050919050565b82818337600083830152505050565b6000612fea612fe584612f97565b612f7c565b90508281526020810184848401111561300657613005612f17565b5b613011848285612fc8565b509392505050565b600082601f83011261302e5761302d612f12565b5b813561303e848260208601612fd7565b91505092915050565b6000806000806080858703121561306157613060612a71565b5b600061306f87828801612cc7565b945050602061308087828801612cc7565b935050604061309187828801612c12565b925050606085013567ffffffffffffffff8111156130b2576130b1612a76565b5b6130be87828801613019565b91505092959194509250565b600067ffffffffffffffff8211156130e5576130e4612f1c565b5b6130ee82612b85565b9050602081019050919050565b600061310e613109846130ca565b612f7c565b90508281526020810184848401111561312a57613129612f17565b5b613135848285612fc8565b509392505050565b600082601f83011261315257613151612f12565b5b81356131628482602086016130fb565b91505092915050565b6000806040838503121561318257613181612a71565b5b600061319085828601612cc7565b925050602083013567ffffffffffffffff8111156131b1576131b0612a76565b5b6131bd8582860161313d565b9150509250929050565b600080604083850312156131de576131dd612a71565b5b60006131ec85828601612cc7565b92505060206131fd85828601612cc7565b9150509250929050565b7f4e487b7100000000000000000000000000000000000000000000000000000000600052602260045260246000fd5b6000600282049050600182168061324e57607f821691505b6020821081141561326257613261613207565b5b50919050565b7f4552433732313a20617070726f76616c20746f2063757272656e74206f776e6560008201527f7200000000000000000000000000000000000000000000000000000000000000602082015250565b60006132c4602183612b41565b91506132cf82613268565b604082019050919050565b600060208201905081810360008301526132f3816132b7565b9050919050565b7f4552433732313a20617070726f76652063616c6c6572206973206e6f7420746f60008201527f6b656e206f776e6572206e6f7220617070726f76656420666f7220616c6c0000602082015250565b6000613356603e83612b41565b9150613361826132fa565b604082019050919050565b6000602082019050818103600083015261338581613349565b9050919050565b7f4552433732313a2063616c6c6572206973206e6f7420746f6b656e206f776e6560008201527f72206e6f7220617070726f766564000000000000000000000000000000000000602082015250565b60006133e8602e83612b41565b91506133f38261338c565b604082019050919050565b60006020820190508181036000830152613417816133db565b9050919050565b7f455243373231456e756d657261626c653a206f776e657220696e646578206f7560008201527f74206f6620626f756e6473000000000000000000000000000000000000000000602082015250565b600061347a602b83612b41565b91506134858261341e565b604082019050919050565b600060208201905081810360008301526134a98161346d565b9050919050565b7f4e487b7100000000000000000000000000000000000000000000000000000000600052603260045260246000fd5b7f4e487b7100000000000000000000000000000000000000000000000000000000600052601160045260246000fd5b600061351982612bf1565b91507fffffffffffffffffffffffffffffffffffffffffffffffffffffffffffffffff82141561354c5761354b6134df565b5b600182019050919050565b7f455243373231456e756d657261626c653a20676c6f62616c20696e646578206f60008201527f7574206f6620626f756e64730000000000000000000000000000000000000000602082015250565b60006135b3602c83612b41565b91506135be82613557565b604082019050919050565b600060208201905081810360008301526135e2816135a6565b9050919050565b7f4552433732313a20696e76616c696420746f6b656e2049440000000000000000600082015250565b600061361f601883612b41565b915061362a826135e9565b602082019050919050565b6000602082019050818103600083015261364e81613612565b9050919050565b7f4552433732313a2061646472657373207a65726f206973206e6f74206120766160008201527f6c6964206f776e65720000000000000000000000000000000000000000000000602082015250565b60006136b1602983612b41565b91506136bc82613655565b604082019050919050565b600060208201905081810360008301526136e0816136a4565b9050919050565b7f4552433732314d657461646174613a2055524920717565727920666f72206e6f60008201527f6e6578697374656e7420746f6b656e0000000000000000000000000000000000602082015250565b6000613743602f83612b41565b915061374e826136e7565b604082019050919050565b6000602082019050818103600083015261377281613736565b9050919050565b7f5472616e73616374696f6e2076616c756520646964206e6f7420657175616c2060008201527f746865206d696e74207072696365210000000000000000000000000000000000602082015250565b60006137d5602f83612b41565b91506137e082613779565b604082019050919050565b60006020820190508181036000830152613804816137c8565b9050919050565b7f4d617820737570706c7920726561636865640000000000000000000000000000600082015250565b6000613841601283612b41565b915061384c8261380b565b602082019050919050565b6000602082019050818103600083015261387081613834565b9050919050565b7f4f776e61626c653a206e6577206f776e657220697320746865207a65726f206160008201527f6464726573730000000000000000000000000000000000000000000000000000602082015250565b60006138d3602683612b41565b91506138de82613877565b604082019050919050565b60006020820190508181036000830152613902816138c6565b9050919050565b7f4552433732313a207472616e736665722066726f6d20696e636f72726563742060008201527f6f776e6572000000000000000000000000000000000000000000000000000000602082015250565b6000613965602583612b41565b915061397082613909565b604082019050919050565b6000602082019050818103600083015261399481613958565b9050919050565b7f4552433732313a207472616e7366657220746f20746865207a65726f2061646460008201527f7265737300000000000000000000000000000000000000000000000000000000602082015250565b60006139f7602483612b41565b9150613a028261399b565b604082019050919050565b60006020820190508181036000830152613a26816139ea565b9050919050565b6000613a3882612bf1565b9150613a4383612bf1565b925082821015613a5657613a556134df565b5b828203905092915050565b6000613a6c82612bf1565b9150613a7783612bf1565b9250827fffffffffffffffffffffffffffffffffffffffffffffffffffffffffffffffff03821115613aac57613aab6134df565b5b828201905092915050565b7f4f776e61626c653a2063616c6c6572206973206e6f7420746865206f776e6572600082015250565b6000613aed602083612b41565b9150613af882613ab7565b602082019050919050565b60006020820190508181036000830152613b1c81613ae0565b9050919050565b7f4552433732313a20617070726f766520746f2063616c6c657200000000000000600082015250565b6000613b59601983612b41565b9150613b6482613b23565b602082019050919050565b60006020820190508181036000830152613b8881613b4c565b9050919050565b7f4552433732313a207472616e7366657220746f206e6f6e20455243373231526560008201527f63656976657220696d706c656d656e7465720000000000000000000000000000602082015250565b6000613beb603283612b41565b9150613bf682613b8f565b604082019050919050565b60006020820190508181036000830152613c1a81613bde565b9050919050565b600081905092915050565b6000613c3782612b36565b613c418185613c21565b9350613c51818560208601612b52565b80840191505092915050565b6000613c698285613c2c565b9150613c758284613c2c565b91508190509392505050565b7f45524337323155524953746f726167653a2055524920736574206f66206e6f6e60008201527f6578697374656e7420746f6b656e000000000000000000000000000000000000602082015250565b6000613cdd602e83612b41565b9150613ce882613c81565b604082019050919050565b60006020820190508181036000830152613d0c81613cd0565b9050919050565b600081519050919050565b600082825260208201905092915050565b6000613d3a82613d13565b613d448185613d1e565b9350613d54818560208601612b52565b613d5d81612b85565b840191505092915050565b6000608082019050613d7d6000830187612c86565b613d8a6020830186612c86565b613d976040830185612d1c565b8181036060830152613da98184613d2f565b905095945050505050565b600081519050613dc381612aa7565b92915050565b600060208284031215613ddf57613dde612a71565b5b6000613ded84828501613db4565b91505092915050565b7f4e487b7100000000000000000000000000000000000000000000000000000000600052601260045260246000fd5b6000613e3082612bf1565b9150613e3b83612bf1565b925082613e4b57613e4a613df6565b5b828204905092915050565b6000613e6182612bf1565b9150613e6c83612bf1565b925082613e7c57613e7b613df6565b5b828206905092915050565b7f4552433732313a206d696e7420746f20746865207a65726f2061646472657373600082015250565b6000613ebd602083612b41565b9150613ec882613e87565b602082019050919050565b60006020820190508181036000830152613eec81613eb0565b9050919050565b7f4552433732313a20746f6b656e20616c7265616479206d696e74656400000000600082015250565b6000613f29601c83612b41565b9150613f3482613ef3565b602082019050919050565b60006020820190508181036000830152613f5881613f1c565b9050919050565b7f4e487b7100000000000000000000000000000000000000000000000000000000600052603160045260246000fdfea2646970667358221220c7fdf805e478e4015a145309aa445f68535a2a09f856c169a9f9dd2f5211688964736f6c63430008090033",
  "linkReferences": {},
  "deployedLinkReferences": {}
}